S01400004C43445F51564C5F32305F342E7372656397
S11300000C9434000C9451000C9451000C94510045
S11300100C9451000C9451000C9451000C94510018
S11300200C9451000C9451000C9451000C94510008
S11300300C9451000C9451000C9451000C945100F8
S11300400C9451000C9451000C9451000C945100E8
S11300500C9451000C9451000C9451000C945100D8
S11300600C9451000C94510011241FBECFEFD8E022
S1130070DEBFCDBF11E0A0E0B1E0ECEFFBE002C0D9
S113008005900D92AA34B107D9F721E0AAE4B1E0B2
S113009001C01D92AA34B207E1F70E94C5030C9473
S11300A0FC050C9400006115710581F44130510583
S11300B019F52130310521F423E02093810024C077
S11300C0232B11F522E0209381001EC061307105BD
S11300D0D9F44115510539F421303105A9F425E04D
S11300E02093810011C04130510571F4232B61F438
S11300F024E02093810008C0452B31F421303105E0
S113010019F421E02093810010928500109284005C
S1130110E4E8F0E02081318128173907D8F3109200
S11301208500109284000895982F9F725E9A82959C
S11301308F7080628BB95E985E9A892F80628BB9CA
S11301405E981BB821E030E040E050E061E070E0F0
S113015082E390E00E94530008955E9A982F92954E
S11301609F709BB95E985E9A8F708BB95E981BB82E
S113017021E030E040E050E061E070E082E390E0B4
S11301800E94530008955B9A8BB11BB80895806454
S11301900E94AD00089580680E94AD0008950F93F9
S11301A01F93CF93DF938B01880F880F880F0E94D2
S11301B0C700E801085F1F4F89910E949400C0178F
S11301C0D107D1F7DF91CF911F910F91089580E06E
S11301D00E94CB0008958CE00E94AD000895CF9258
S11301E0DF92FF920F931F93CF93DF9300D000D041
S11301F01F92CDB7DEB710E41AB98AB18F638AB9FA
S113020021E030E040E050E061E070E082E390E023
S11302100E9453001BB98BB183608BB95E9821E0B7
S113022030E040E050E061E070E084E690E00E945D
S113023053001BB98BB183608BB95E9821E030E029
S113024040E050E061E070E084E690E00E945300FA
S11302508BB183608BB95E9821E030E040E050E0E0
S113026061E070E084E690E00E9453001BB982E0F4
S11302708BB95E9821E030E040E050E061E070E04E
S113028084E690E00E9453008E010F5F1F4F6E01C1
S113029086E0C80ED11C6894FF24F6F885E0E8E3F4
S11302A0F1E0DE01119601900D928A95E1F7F801D3
S11302B081918F01982F92959F708F70FBB89BB995
S11302C05E98FBB88BB95E98EC15FD0559F021E0FA
S11302D030E040E050E061E070E080E590E00E94B2
S11302E05300DCCF21E030E040E050E061E070E01A
S11302F088E290E00E9453000F900F900F900F90AF
S11303000F90DF91CF911F910F91FF90DF90CF90CD
S11303100895FF920F931F93CF93DF93EC01F62E72
S11303208A010E94E7000130110579F01CF4012BC9
S113033041F019C00230110569F00330110579F05C
S113034012C08F2D0E94CB000EC080E48F0D0E943E
S1130350CB0009C084E18F0D0E94CB0004C084E56A
S11303608F0D0E94CB008881882331F021960E9452
S1130370940089918111FBCFDF91CF911F910F914F
S1130380FF9008954F925F926F927F928F929F9207
S1130390AF92BF92CF92DF92EF92FF920F931F938F
S11303A0CF93DF93CDB7DEB765970FB6F894DEBF72
S11303B00FBECDBF4B015C017A0169018CE0EDE316
S11303C0F1E0DE01119601900D928A95E1F7FE01AC
S11303D03D9689E0DF011D928A95E9F7C501B401D4
S11303E00E94BE042B013C018B0180E090E00E943E
S11303F0ED049B01AC01C501B4010E94510420E04D
S113040030E048EC52E40E947B050E94BE04862E34
S11304104114510409F0B3C080E38D876894992492
S113042091F84EC0C201885E93408832B3E29B07C4
S113043008F4AEC08C579C4F843823E0920708F42C
S1130440A9C0865A9F4F8A35910508F4A5C081E05A
S1130450481A510881E099E04916510408F080E0F7
S113046099249394980EA1E09A1651F141E0A92C95
S1130470B12C242F30E0F501E21BF30B3197EE0F82
S1130480FF1F81E090E08C0F9D1FE80FF91F019082
S1130490F081E02DC801BF010E94E8056E9FC001F4
S11304A06F9F900D1124081B190BECE0F0E0EC0F8A
S11304B0FD1FE20FF31F605D60834F5F9412D9CF7D
S11304C0282D30E02115310509F452C08EE2FE01D9
S11304D0E90DF11D848741E0490DC9010A978A3568
S11304E0910578F593E0990E491509F441C0A92CBA
S11304F0B12C042F10E0F501E01BF10B3197EE0F46
S1130500FF1FA1E0B0E0AC0FBD1FEA0FFB1F01907D
S1130510F081E02DC901BF010E94E8056E9FC00172
S11305206F9F900D1124281B390BECE0F0E0EC0FC9
S1130530FD1FE00FF11F605D60834F5F9412D9CF00
S113054017C0215031092930310590F4ECE0F0E076
S1130550EC0FFD1FE40FF11D80E3808393949394CB
S1130560ECE0F0E0EC0FFD1FE90DF11D880D808338
S1130570A601B701CE010D960E94890112C0C201E5
S1130580805197428D3C984D08F04CCF85E005C0D2
S113059084E003C083E001C082E099249394980E20
S11305A065CF65960FB6F894DEBF0FBECDBFDF9161
S11305B0CF911F910F91FF90EF90DF90CF90BF905C
S11305C0AF909F908F907F906F905F904F90089521
S11305D00F931F93CF93DF93C82FD62F45310CF47D
S11305E053C049320CF46FC04D330CF48BC0413509
S11305F00CF4A7C0453654F028C081E0810F0E9456
S1130600CB0081E0800F0E949400BAC0082F60E301
S113061071E00E94CF001D2F8D2F0E94CB008C2FE4
S11306200E9494000E94C30021E030E040E050E0CA
S113063061E070E082E390E00E94530060E071E0CA
S113064081E08C0F0E94CF00D8CF082F60E371E0C7
S11306500E94CF001D2F8D2F0E94CB008C2F0E9453
S113066094000E94C30021E030E040E050E061E0EB
S113067070E082E390E00E94530068E271E081E060
S11306808C0F0E94CF00B9CF082F60E371E00E9465
S1130690CF001D2F8D2F0E94CB008C2F0E94940021
S11306A00E94C30021E030E040E050E061E070E0EF
S11306B082E390E00E94530060E271E081E08C0FDD
S11306C00E94CF009ACF082F60E371E00E94CF0010
S11306D01D2F8D2F0E94CB008C2F0E9494000E940E
S11306E0C30021E030E040E050E061E070E082E3EC
S11306F090E00E94530068E171E081E08C0F0E9459
S1130700CF007BCF082F60E371E00E94CF001D2F44
S11307108D2F0E94CB008C2F0E9494000E94C30056
S113072021E030E040E050E061E070E082E390E0FE
S11307300E94530060E171E081E08C0F0E94CF00C1
S11307405CCF082F60E371E00E94CF001D2F8D2F36
S11307500E94CB008C2F0E9494000E94C30021E0D1
S113076030E040E050E061E070E082E390E00E941D
S1130770530068E071E081E08C0F0E94CF003DCF10
S1130780DF91CF911F910F9108950E94EF000E9475
S1130790EB0021E030E040E050E061E070E088EB05
S11307A09BE00E94530021E030E040E050E061E033
S11307B070E080E29EE40E94530044E160E080E047
S11307C00E94E80221E030E040E050E061E070E0A7
S11307D080ED97E00E94530048E260E080E00E94D0
S11307E0E80221E030E040E050E061E070E080EDBC
S11307F097E00E9453004CE360E080E00E94E8022E
S113080021E030E040E050E061E070E080ED97E00E
S11308100E94530040E560E080E00E94E80221E08D
S113082030E040E050E061E070E080ED97E00E944D
S1130830530044E660E080E00E94E80221E030E0FA
S113084040E050E061E070E080ED97E00E945300EA
S1130850CAE0D0E0BE0180E090E00E94ED042DECFF
S11308603CEC4CEC5DE30E947B052DEC3CEC4CE055
S11308705FE30E94520420E030E04AE050E00E942E
S1130880C20121E030E040E050E061E070E080E14E
S113089097E20E9453002196C03187E2D807D1F62F
S11308A08CCF5058BB27AA270E9469040C94410599
S11308B00E94330538F00E943A0520F039F49F3F36
S11308C019F426F40C9430050EF4E095E7FB0C942F
S11308D02A05E92F0E94520558F3BA1762077307D5
S11308E08407950720F079F4A6F50C9474050EF4AA
S11308F0E0950B2EBA2FA02D0B01B90190010C012C
S1130900CA01A0011124FF27591B99F0593F50F443
S1130910503E68F11A16F040A22F232F342F44279B
S1130920585FF3CF469537952795A795F040539593
S1130930C9F77EF41F16BA0B620B730B840BBAF063
S11309409150A1F0FF0FBB1F661F771F881FC2F7CE
S11309500EC0BA0F621F731F841F48F487957795E2
S11309606795B795F7959E3F08F0B0CF9395880F9C
S113097008F09927EE0F9795879508950E945A05D8
S113098088F09F5798F0B92F9927B751B0F0E1F04C
S1130990660F771F881F991F1AF0BA95C9F714C0FC
S11309A0B13091F00E947405B1E008950C9474057F
S11309B0672F782F8827B85F39F0B93FCCF3869535
S11309C077956795B395D9F73EF490958095709592
S11309D061957F4F8F4F9F4F0895E89409C097FB0F
S11309E03EF490958095709561957F4F8F4F9F4F02
S11309F09923A9F0F92F96E9BB279395F695879546
S1130A0077956795B795F111F8CFFAF4BB0F11F408
S1130A1060FF1BC06F5F7F4F8F4F9F4F16C08823AF
S1130A2011F096E911C0772321F09EE8872F762FE5
S1130A3005C0662371F096E8862F70E060E02AF026
S1130A409A95660F771F881FDAF7880F9695879512
S1130A5097F9089597F99F6780E870E060E008953A
S1130A609FEF80EC089500240A94161617061806C2
S1130A700906089500240A9412161306140605069E
S1130A800895092E0394000C11F4882352F0BB0F2F
S1130A9040F4BF2B11F460FF04C06F5F7F4F8F4F92
S1130AA09F4F089557FD9058440F551F59F05F3FCD
S1130AB071F04795880F97FB991F61F09F3F79F07C
S1130AC087950895121613061406551FF2CF4695FE
S1130AD0F1DF08C0161617061806991FF1CF869580
S1130AE07105610508940895E894BB276627772764
S1130AF0CB0197F908950E948E050C9441050E943C
S1130B00330538F00E943A0520F0952311F00C9437
S1130B102A050C94300511240C9475050E94520585
S1130B2070F3959FC1F3950F50E0551F629FF0013C
S1130B30729FBB27F00DB11D639FAA27F00DB11D55
S1130B40AA1F649F6627B00DA11D661F829F2227DE
S1130B50B00DA11D621F739FB00DA11D621F839F65
S1130B60A00D611D221F749F3327A00D611D231F3B
S1130B70849F600D211D822F762F6A2F11249F5789
S1130B8050409AF0F1F088234AF0EE0FFF1FBB1F8C
S1130B90661F771F881F91505040A9F79E3F51054B
S1130BA080F00C942A050C9475055F3FE4F3983E9D
S1130BB0D4F3869577956795B795F795E7959F5FF5
S1130BC0C1F7FE2B880F911D9695879597F9089587
S1130BD0AA1BBB1B51E107C0AA1FBB1FA617B7075F
S1130BE010F0A61BB70B881F991F5A95A9F780957B
S10F0BF09095BC01CD010895F894FFCF4E
S1130BFC000103070F1F1F1F000002060E1E1E1FFD
S1130C0C000000040C1C1C1F000000000818181F16
S1130C1C000000000010101F000000000000001F66
S1130C2C0103070D0D0703012B2B0F010601000A0D
S10D0C3C006400E8031027FFFF0026
S9030000FC
